:020000040800F2
:1000000000000820D15C00082D14000833140008FB
:10001000391400083F1400084514000800000000CF
:100020000000000000000000000000004B14000869
:100030005914000800000000671400087514000837
:10004000215D0008215D0008215D0008215D000898
:10005000215D0008215D0008215D0008215D000888
:10006000215D0008215D0008215D0008215D000878
:10007000215D0008215D0008215D0008215D000868
:1000800081140008215D0008215D0008215D000841
:10009000215D0008215D0008215D0008215D000848
:1000A000215D0008215D0008215D0008215D000838
:1000B000215D0008215D0008215D0008215D000828
:1000C000215D0008215D0008215D0008215D000818
:1000D000215D0008215D0008215D0008215D000808
:1000E000215D0008215D0008215D0008215D0008F8
:1000F000215D0008215D0008215D0008215D0008E8
:10010000215D0008215D0008215D0008215D0008D7
:10011000215D0008215D0008215D0008215D0008C7
:10012000215D0008215D0008215D0008215D0008B7
:10013000215D0008215D0008215D0008215D0008A7
:10014000215D0008215D0008215D0008215D000897
:10015000215D0008215D0008215D0008215D000887
:10016000215D0008215D0008215D0008215D000877
:10017000215D0008215D0008215D000800000000ED
:10018000215D0008215D0008215D0008215D000857
:10019000215D0008215D0008215D0008215D000847
:1001A000215D0008215D0008215D0008215D000837
:1001B000215D0008215D0008215D0008215D000827
:1001C000215D0008215D000800000000215D00089D
:1001D000215D0008215D0008215D0008215D000807
:1001E000215D0008215D0008215D0008215D0008F7
:0801F000215D0008215D0008FB
:1001F80010B5054C237833B9044B13B10448AFF359
:1002080000800123237010BD4C0100200000000075
:10021800245D000808B5034B1BB103490348AFF33D
:10022800008008BD0000000050010020245D000887
:1002380053B94AB9002908BF00281CBF4FF0FF3145
:100248004FF0FF3000F074B9ADF1080C6DE904CE41
:1002580000F006F8DDF804E0DDE9022304B0704799
:100268002DE9F047089D04468E46002B4DD18A4261
:10027800944669D9B2FA82F252B101FA02F3C2F194
:10028800200120FA01F10CFA02FC41EA030E944025
:100298004FEA1C48210CBEFBF8F61FFA8CF708FB46
:1002A80016E341EA034306FB07F199420AD91CEB1E
:1002B800030306F1FF3080F01F81994240F21C8150
:1002C800023E63445B1AA4B2B3FBF8F008FB103398
:1002D80044EA034400FB07F7A7420AD91CEB0404CD
:1002E80000F1FF3380F00A81A74240F2078164449D
:1002F800023840EA0640E41B00261DB1D440002322
:10030800C5E900433146BDE8F0878B4209D9002D85
:1003180000F0EF800026C5E9000130463146BDE80F
:10032800F087B3FA83F6002E4AD18B4202D3824279
:1003380000F2F980841A61EB030301209E46002D28
:10034800E0D0C5E9004EDDE702B9FFDEB2FA82F27D
:10035800002A40F09280A1EB0C014FEA1C471FFADB
:100368008CFE0126200CB1FBF7F307FB131140EAC2
:1003780001410EFB03F0884208D91CEB010103F18F
:10038800FF3802D2884200F2CB804346091AA4B251
:10039800B1FBF7F007FB101144EA01440EFB00FE25
:1003A800A64508D91CEB040400F1FF3102D2A6458A
:1003B80000F2BB800846A4EB0E0440EA03409CE729
:1003C800C6F12007B34022FA07FC4CEA030C20FAD6
:1003D80007F401FA06F31C43F9404FEA1C4900FAF6
:1003E80006F3B1FBF9F8200C1FFA8CFE09FB181173
:1003F80040EA014108FB0EF0884202FA06F20BD9E6
:100408001CEB010108F1FF3A80F08880884240F235
:100418008580A8F102086144091AA4B2B1FBF9F079
:1004280009FB101144EA014100FB0EFE8E4508D974
:100438001CEB010100F1FF346CD28E456AD90238F9
:10044800614440EA0840A0FB0294A1EB0E01A142DE
:10045800C846A64656D353D05DB1B3EB080261EB4C
:100468000E0101FA07F722FA06F3F1401F43C5E926
:10047800007100263146BDE8F087C2F12003D8405C
:100488000CFA02FC21FA03F3914001434FEA1C479E
:100498001FFA8CFEB3FBF7F007FB10360B0C43EA90
:1004A800064300FB0EF69E4204FA02F408D91CEB40
:1004B800030300F1FF382FD29E422DD9023863443E
:1004C8009B1B89B2B3FBF7F607FB163341EA0341DE
:1004D80006FB0EF38B4208D91CEB010106F1FF382D
:1004E80016D28B4214D9023E6144C91A46EA004624
:1004F80038E72E46284605E70646E3E61846F8E6B6
:100508004B45A9D2B9EB020864EB0C0E0138A3E7FE
:100518004646EAE7204694E74046D1E7D0467BE7DF
:10052800023B614432E7304609E76444023842E757
:10053800704700BF70B50D4D0D4C641BA41000260C
:10054800A64209D10B4D0C4C05F0E8FB641BA41026
:100558000026A64205D170BD55F8043B98470136E0
:10056800EEE755F8043B98470136F2E7745D00085A
:10057800745D0008745D0008785D00080244034655
:10058800934200D1704703F8011BF9E790B587B093
:1005980000AF654B3C460FCB84E80F000023FB758A
:1005A8004FF07C533B6100F083FF00F0C9F800F086
:1005B80013FB00F0F3FA00F063FA00F0C1FA00F060
:1005C8002FF900F0A5F900F08BFA00F053F900F0CC
:1005D800DFF90021554801F020F900220421544890
:1005E80002F078F900224FF40071524802F072F9D3
:1005F80000224FF480414F4802F06CF900224FF47A
:1006080000414D4802F066F900224FF400514B4872
:1006180002F060F900224FF48041474802F05AF98D
:1006280000224FF40061454802F054F900224FF4CB
:100638000071424802F04EF9012204213C4802F0C0
:1006480049F900224FF400713C4802F043F90A20AE
:1006580000F08CFF00220421354802F03BF901220A
:100668004FF40071334802F035F90A2000F07EFF9C
:1006780000224FF400712F4802F02CF901224FF4A8
:1006880080412C4802F026F90A2000F06FFF002272
:100698004FF48041274802F01DF901224FF4004130
:1006A800254802F017F90A2000F060FF00224FF4F5
:1006B8000041214802F00EF901224FF400511F4871
:1006C80002F008F90A2000F051FF00224FF400510F
:1006D8001A4802F0FFF801224FF48041164802F050
:1006E800F9F80A2000F042FF00224FF48041124836
:1006F80002F0F0F801224FF40061104802F0EAF825
:100708000A2000F033FF00224FF400610B4802F08A
:10071800E1F801224FF40071084802F0DBF80A20E2
:1007280000F024FF88E700BF3C5D0008A00100201E
:100738000004024000180240001402400010024069
:1007480080B594B000AF07F11C033422002118468D
:10075800FFF714FF07F1080300221A605A609A6035
:10076800DA601A6102F03EFB2B4B1B6C2A4A43F0FD
:1007780080531364284B1B6C03F080537B607B68A9
:10078800264B1B68254A43F440431360234B1B68E0
:1007980003F440433B603B680123FB614FF4A02313
:1007A8003B6202237B634FF48003BB630423FB6338
:1007B800D8233B6402237B640923BB640223FB64C4
:1007C80007F11C03184602F06DFB0346002B01D00D
:1007D80000F0FEFA02F016FB0346002B01D000F0F1
:1007E800F7FA0F23BB600223FB6000233B614FF441
:1007F800A0537B614FF48053BB6107F108030721C5
:10080800184602F0FDFD0346002B01D000F0E0FA87
:1008180000BF5037BD4680BD003802400070004020
:1008280080B582B000AF3B4600221A605A600F4B79
:100838000F4A1A600D4800F0CEFF0346002B01D086
:1008480000F0C6FA00233B6000237B603B46002291
:100858001946064801F033F80346002B01D000F092
:10086800B7FA00BF0837BD4680BD00BFA001002011
:100878000074004080B500AF1F4B204A1A60204B1F
:1008880000221A701E4B80225A701D4BE1229A706A
:100898001B4B0022DA701A4B00221A71184B0022E7
:1008A8005A71154B164A5A60134B4FF400029A605E
:1008B800114B144ADA60104B134A1A610E4B40F27E
:1008C800F4525A610C4801F033FB0346002B01D067
:1008D80000F07EFA382200210C48FFF74FFE0B4B40
:1008E80021221A60094B4FF440025A61074B00223B
:1008F8001A6100BF80BD00BF1402002000800240C2
:100908007C090020AC0000200C00002068010020B9
:1009180080B500AF1B4B1C4A1A601A4B1B4A5A6021
:10092800184B00229A60174B0122DA60154B0022FF
:100938001A61144B00225A61124B00229A61114B22
:100948000022DA610F4B00221A620E4801F0DBFF29
:100958000346002B01D000F03BFA0021094802F0C1
:1009680061F80346002B01D000F032FA0021054857
:1009780002F0A3F80346002B01D000F029FA00BFCB
:1009880080BD00BFC40200200054004068474020DA
:1009980080B58EB000AF07F1280300221A605A60B4
:1009A8009A60DA6007F11C0300221A605A609A60A4
:1009B8003B4600221A605A609A60DA601A615A61EE
:1009C8009A612E4B4FF080421A602C4B40F237420E
:1009D8005A602A4B00229A60284B42F20F72DA6062
:1009E800264B00221A61254B00229A61234803F006
:1009F80055FB0346002B01D000F0EAF94FF4805371
:100A0800BB6207F1280319461C4803F013FD03468F
:100A1800002B01D000F0DCF9184803F096FB0346E0
:100A2800002B01D000F0D4F90023FB6100237B6286
:100A380007F11C031946114804F05EF90346002B20
:100A480001D000F0C5F960233B6040F6C3137B601A
:100A58000023BB6000233B613B4600221946074840
:100A680003F0D4FB0346002B01D000F0B1F9034892
:100A780000F082FB00BF3837BD4680BD1803002058
:100A880080B500AF144B154A1A60134B4FF4E1328E
:100A98005A60114B00229A600F4B0022DA600E4B0D
:100AA80000221A610C4B0C225A610B4B00229A61EE
:100AB800094B0022DA61084B00221A62064B002219
:100AC8005A62054804F0A6F90346002B01D000F04D
:100AD8007FF900BF80BD00BF6403002000480040CC
:100AE80080B500AF144B154A1A60134B4FF4E1322E
:100AF8005A60114B00229A600F4B0022DA600E4BAD
:100B080000221A610C4B0C225A610B4B00229A618D
:100B1800094B0022DA61084B00221A62064B0022B8
:100B28005A62054804F076F90346002B01D000F01C
:100B38004FF900BF80BD00BFEC0300200014014046
:100B480080B500AF144B4FF0A0421A60124B06223A
:100B58005A60114B0222DA600F4B00221A610E4BC9
:100B680002229A610C4B0122DA610B4B00221A62B5
:100B7800094B00225A62084B0122DA62064B002216
:100B88001A63054801F0E5FF0346002B01D000F089
:100B98001FF900BF80BD00BF7404002080B582B07B
:100BA80000AF0C4B1B6B0B4A43F400131363094B48
:100BB8001B6B03F400137B607B680022002110206C
:100BC80000F0D3FD102000F0ECFD00BF0837BD4653
:100BD80080BD00BF0038024080B58EB000AF07F17D
:100BE800240300221A605A609A60DA601A61724B14
:100BF8001B6B714A43F0040313636F4B1B6B03F0C9
:100C080004033B623B6A6C4B1B6B6B4A43F08003EB
:100C18001363694B1B6B03F08003FB61FB69664B35
:100C28001B6B654A43F001031363634B1B6B03F0B3
:100C38000103BB61BB69604B1B6B5F4A43F0020356
:100C480013635D4B1B6B03F002037B617B695A4B9B
:100C58001B6B594A43F020031363574B1B6B03F07C
:100C680020033B613B69544B1B6B534A43F0100311
:100C78001363514B1B6B03F01003FB60FB684E4B77
:100C88001B6B4D4A43F0080313634B4B1B6B03F07C
:100C98000803BB60BB68484B1B6B474A43F04003E3
:100CA8001363454B1B6B03F040037B607B6800229A
:100CB8000921424801F00EFE002244F28501404815
:100CC80001F008FE00224FF440413E4801F002FEC8
:100CD80000224FF428513C4801F0FCFD002244F268
:100CE80040213A4801F0F6FD4FF400537B624FF47F
:100CF8008813BB620023FB6207F1240319462F48BF
:100D080001F03CFC09237B620123BB620023FB62E8
:100D180000233B6307F124031946284801F02EFC01
:100D280044F285037B620123BB620023FB6200233C
:100D38003B6307F124031946214801F01FFC4FF4D7
:100D480040437B620123BB620023FB6200233B63B9
:100D580007F1240319461B4801F010FC4FF42853EF
:100D68007B620123BB620023FB6200233B6307F124
:100D780024031946144801F001FC44F240237B6225
:100D88000123BB620023FB6200233B6307F12403BA
:100D980019460E4801F0F2FB80237B620023BB62F8
:100DA8000023FB6207F124031946084801F0E6FB1B
:100DB80000BF3837BD4680BD0038024000080240F9
:100DC80000040240001402400010024000180240D3
:100DD80080B400AF72B600BFFEE7000080B483B0F5
:100DE80000AF0F4B1B6C0E4A43F0805313640C4B3F
:100DF8001B6C03F080537B607B68094B5B6C084A73
:100E080043F480435364064B5B6C03F480433B60BC
:100E18003B6800BF0C37BD465DF8047B704700BFD8
:100E28000038024080B58AB000AF786007F114033B
:100E380000221A605A609A60DA601A617B681B683F
:100E48002D4A934253D12D4B1B6C2C4A43F000532F
:100E580013642A4B1B6C03F000533B613B69274B1F
:100E68001B6B264A43F001031363244B1B6B03F0EF
:100E78000103FB60FB6810237B610323BB61002334
:100E8800FB6107F1140319461D4801F077FB1D4B60
:100E98001D4A1A601B4B4FF060625A60194B402282
:100EA8009A60184B0022DA60164B4FF480621A6180
:100EB800144B4FF400625A61124B4FF400529A617E
:100EC800104B0022DA610F4B00221A620D4B0022F0
:100ED8005A620C4800F042FD0346002B01D0FFF790
:100EE80077FF7B68074A9A60064A7B68936300BF6E
:100EF8002837BD4680BD00BF00740040003802405E
:100F080000000240B40100208860024080B58EB025
:100F180000AF786007F1240300221A605A609A60D3
:100F2800DA601A617B681B684E4A934240F09680EB
:100F38004D4B1B6B4C4A43F0007313634A4B1B6BBE
:100F480003F000733B623B6A474B1B6B464A43F016
:100F580080631363444B1B6B03F08063FB61FB6985
:100F6800414B1B6B404A43F0006313633E4B1B6BC2
:100F780003F00063BB61BB693B4B1B6B3A4A43F010
:100F880004031363384B1B6B03F004037B617B6919
:100F9800354B1B6B344A43F001031363324B1B6B15
:100FA80003F001033B613B692F4B1B6B2E4A43F057
:100FB800020313632C4B1B6B03F00203FB60FB68FB
:100FC800294B1B6B284A43F040031363264B1B6BCA
:100FD80003F04003BB60BB6832237B620223BB6221
:100FE8000023FB6203233B630B237B6307F124038A
:100FF80019461E4801F0C2FA86237B620223BB62AF
:101008000023FB6203233B630B237B6307F1240369
:101018001946174801F0B2FA4FF400537B620223D5
:10102800BB620023FB6203233B630B237B6307F153
:10103800240319460F4801F0A1FA4FF420537B62AC
:101048000223BB620023FB6203233B630B237B6306
:1010580007F124031946084801F090FA00BF383711
:10106800BD4680BD008002400038024000080240B2
:1010780000000240000402400018024080B5AEB0F3
:1010880000AF786007F1A40300221A605A609A60E2
:10109800DA601A6107F11403902200211846FFF75D
:1010A8006DFA7B681B68224A93423CD14FF4804317
:1010B8007B610023BB6707F11403184602F0C6FBE7
:1010C8000346002B01D0FFF783FE1A4B1B6B194A0E
:1010D80043F002031363174B1B6B03F002033B61DE
:1010E8003B694FF41073C7F8A4301223C7F8A8302F
:1010F8000023C7F8AC300323C7F8B0300423C7F87F
:10110800B43007F1A40319460B4801F037FA094B2C
:101118001B6C084A43F400131364064B1B6C03F45E
:101128000013FB60FB6800BFB837BD4680BD00BF39
:1011380000540040003802400004024080B485B0EA
:1011480000AF78607B681B68B3F1804F0BD1094B07
:101158001B6C084A43F001031364064B1B6C03F035
:101168000103FB60FB6800BF1437BD465DF8047BD4
:10117800704700BF0038024080B588B000AF786083
:1011880007F10C0300221A605A609A60DA601A614B
:101198007B681B68B3F1804F1BD1104B1B6B0F4A48
:1011A80043F0010313630D4B1B6B03F00103BB609A
:1011B800BB680123FB6002233B6100237B6103239F
:1011C800BB610123FB6107F10C031946044801F0D8
:1011D800D5F900BF2037BD4680BD00BF00380240AA
:1011E8000000024080B5B0B000AF786007F1AC03F2
:1011F80000221A605A609A60DA601A6107F11C03CB
:10120800902200211846FFF7B9F97B681B68434A0A
:1012180093423DD14FF48073FB610023BB6607F115
:101228001C03184602F012FB0346002B01D0FFF7FF
:10123800CFFD3B4B1B6C3A4A43F480231364384B75
:101248001B6C03F48023BB61BB69354B1B6B344AB1
:1012580043F008031363324B1B6B03F008037B61F5
:101268007B694FF44073C7F8AC300223C7F8B0303D
:101278000023C7F8B4300323C7F8B8300723C7F8EA
:10128800BC3007F1AC031946264801F077F940E075
:101298007B681B68244A93423BD14FF40063FB618F
:1012A80000237B6707F11C03184602F0CFFA0346B8
:1012B800002B01D0FFF78CFD194B5B6C184A43F0EB
:1012C80020035364164B5B6C03F020033B613B69BE
:1012D800134B1B6B124A43F004031363104B1B6B35
:1012E80003F00403FB60FB68C023C7F8AC3002239B
:1012F800C7F8B0300023C7F8B4300323C7F8B830B4
:101308000823C7F8BC3007F1AC031946074801F0B9
:1013180035F900BFC037BD4680BD00BF004800405A
:1013280000380240000C024000140140000802404E
:1013380080B5AEB000AF786007F1A40300221A6050
:101348005A609A60DA601A6107F11403902200214A
:101358001846FFF713F97B681B68B3F1A04F59D102
:101368004FF400137B610023C7F8903007F1140392
:10137800184602F06BFA0346002B01D0FFF728FD50
:10138800264B1B6B254A43F001031363234B1B6B4E
:1013980003F001033B613B694FF4E853C7F8A430FD
:1013A8000223C7F8A8300023C7F8AC300323C7F8D6
:1013B800B0300A23C7F8B43007F1A4031946184817
:1013C80001F0DCF84FF40073C7F8A4300023C7F825
:1013D800A8300023C7F8AC3007F1A4031946104819
:1013E80001F0CCF80D4B5B6B0C4A43F08003536360
:1013F8000A4B5B6B03F08003FB60FB68074B5B6C7D
:10140800064A43F480435364044B5B6C03F4804303
:10141800BB60BB6800BFB837BD4680BD003802401E
:101428000000024080B400AFFEE780B400AFFEE7E2
:1014380080B400AFFEE780B400AFFEE780B400AF31
:10144800FEE780B400AF00BFBD465DF8047B70477F
:1014580080B400AF00BFBD465DF8047B704780B420
:1014680000AF00BFBD465DF8047B704780B500AF94
:1014780000F05CF800BF80BD80B500AF024800F006
:101488001BFB00BF80BD00BFB401002080B400AFCB
:10149800064BD3F88830054A43F47003C2F8883005
:1014A80000BFBD465DF8047B704700BF00ED00E05B
:1014B80080B500AF032000F04DF9002000F006F8D9
:1014C800FFF78CFC0023184680BD000080B582B071
:1014D80000AF7860124B1A68124B1B7819464FF40C
:1014E8007A73B3FBF1F3B2FBF3F3184600F067F934
:1014F8000346002B01D001230EE07B680F2B0AD88E
:10150800002279684FF0FF3000F02FF9064A7B6817
:101518001360002300E0012318460837BD4680BD4C
:1015280000000020080000200400002080B400AF64
:10153800064B1B781A46064B1B681344044A136073
:1015480000BFBD465DF8047B704700BF080000205F
:101558008409002080B400AF034B1B681846BD46C1
:101568005DF8047B704700BF8409002080B584B013
:1015780000AF7860FFF7EEFFB8607B68FB60FB6840
:10158800B3F1FF3F05D00A4B1B781A46FB6813449A
:10159800FB6000BFFFF7DEFF0246BB68D31AFA689C
:1015A8009A42F7D800BF00BF1037BD4680BD00BFC4
:1015B8000800002080B485B000AF78607B6803F035
:1015C8000703FB600C4BDB68BB60BA684FF6FF0390
:1015D8001340BB60FB681A02BB68134343F0BF6348
:1015E80043F40033BB60044ABB68D36000BF1437C0
:1015F800BD465DF8047B704700ED00E080B400AFA5
:10160800044BDB681B0A03F007031846BD465DF868
:10161800047B704700ED00E080B483B000AF034660
:10162800FB7197F90730002B0BDBFB7903F01F02E6
:10163800074997F907305B09012000FA02F241F8DF
:10164800232000BF0C37BD465DF8047B704700BF00
:1016580000E100E080B483B000AF03463960FB715D
:1016680097F90730002B0ADB3B68DAB20C4997F987
:1016780007301201D2B20B4483F800230AE03B681A
:10168800DAB20849FB7903F00F03043B1201D2B226
:101698000B441A7600BF0C37BD465DF8047B7047D3
:1016A80000E100E000ED00E080B489B000AFF86030
:1016B800B9607A60FB6803F00703FB61FB69C3F15B
:1016C8000703042B28BF0423BB61FB690433062BE3
:1016D80002D9FB69033B00E000237B614FF0FF3236
:1016E800BB6902FA03F3DA43BB681A407B699A4084
:1016F8004FF0FF317B6901FA03F3D9437B680B4054
:10170800134318462437BD465DF8047B7047000034
:1017180080B582B000AF78607B68013BB3F1807F11
:1017280001D301230FE00A4A7B68013B53600F2174
:101738004FF0FF30FFF78EFF054B00229A60044BF5
:1017480007221A60002318460837BD4680BD00BF2F
:1017580010E000E080B582B000AF78607868FFF7ED
:1017680029FF00BF0837BD4680BD80B586B000AFF1
:101778000346B9607A60FB7300237B61FFF73EFF85
:1017880078617A68B9687869FFF78EFF024697F939
:101798000F3011461846FFF75DFF00BF1837BD46EA
:1017A80080BD80B582B000AF0346FB7197F9073062
:1017B8001846FFF731FF00BF0837BD4680BD80B52A
:1017C80082B000AF78607868FFF7A2FF034618463A
:1017D8000837BD4680BD80B582B000AF78607B68B1
:1017E800002B01D1012314E07B681B79DBB2002BAD
:1017F80005D17B6800225A717868FFF713FB7B6874
:1018080002221A717B6800221A617B6801221A7110
:10181800002318460837BD4680BD80B483B000AFAA
:10182800786039607B685B79012B01D1022340E045
:101838007B6801225A717B6802221A717B681B68D7
:1018480019683B6803F0100301229A407B681B6803
:101858000A431A603B68002B0FD17B681B681B6822
:1018680003F03C033C2B1DD17B681B685A687B68DE
:101878001B6842F001025A6014E07B681B681B6811
:1018880003F470123B6803F010033C2101FA03F3E0
:101898009A4207D17B681B685A687B681B6842F0CC
:1018A80002025A607B6801221A717B6800225A7111
:1018B800002318460C37BD465DF8047B704780B49A
:1018C80087B000AFF860B9607A60FB685B79012B7C
:1018D80001D102233CE0FB6801225A71FB68022215
:1018E8001A71FB681B681B687B617B6803F0100337
:1018F80040F6FE7202FA03F3DB437A6913407B6118
:10190800BB681A68BB685B6813433B617B6803F07C
:1019180010033A6902FA03F37A6913437B61FB689F
:101928001B687A691A60FB681B6819687B6803F092
:101938001003C02202FA03F3DA43FB681B680A406B
:101948001A60FB6801221A71FB6800225A71002391
:1019580018461C37BD465DF8047B704780B586B0D5
:1019680000AF786000237B61FFF7F4FD38617B6886
:10197800002B01D1012399E07B68022283F83520EE
:101988007B68002283F834207B681B681A687B68B0
:101998001B6822F001021A600FE0FFF7DBFD024628
:1019A8003B69D31A052B08D97B6820225A657B68C6
:1019B800032283F83520032378E07B681B681B68C3
:1019C80003F00103002BE8D17B681B681B687B616F
:1019D8007A69384B13407B617B685A687B689B68DF
:1019E8001A437B68DB681A437B681B691A437B6868
:1019F8005B691A437B689B691A437B68DB691A43F6
:101A08007B681B6A13437A6913437B617B685B6A53
:101A1800042B07D17B68DA6A7B681B6B13437A69EE
:101A280013437B617B681B687A691A607B681B6853
:101A38005B697B617B6923F007037B617B685B6A79
:101A48007A6913437B617B685B6A042B17D17B68D7
:101A58009B6A7A6913437B617B68DB6A002B0ED033
:101A6800786800F0E9F90346002B08D07B6840222B
:101A78005A657B68012283F83520012316E07B68CC
:101A88001B687A695A61786800F0A0F90346FB6020
:101A98007B68DB6D3F229A40FB689A607B68002276
:101AA8005A657B68012283F83520002318461837C9
:101AB800BD4680BD3F8010E080B586B000AF78603D
:101AC8000023BB608E4B1B688E4AA2FB03239B0A34
:101AD8007B617B689B6D3B613B691B68FB607B6836
:101AE800DB6D08229A40FB681340002B1AD07B68F4
:101AF8001B681B6803F00403002B13D07B681B686A
:101B08001A687B681B6822F004021A607B68DB6D28
:101B180008229A403B699A607B685B6D43F001023A
:101B28007B685A657B68DB6D01229A40FB6813402D
:101B3800002B12D07B681B685B6903F08003002BC5
:101B48000BD07B68DB6D01229A403B699A607B6809
:101B58005B6D43F002027B685A657B68DB6D04228B
:101B68009A40FB681340002B12D07B681B681B68E7
:101B780003F00203002B0BD07B68DB6D04229A4034
:101B88003B699A607B685B6D43F004027B685A6529
:101B98007B68DB6D10229A40FB681340002B43D012
:101BA8007B681B681B6803F00803002B3CD07B682C
:101BB800DB6D10229A403B699A607B681B681B6842
:101BC80003F48023002B18D07B681B681B6803F480
:101BD8000023002B08D17B681B6C002B24D07B686A
:101BE8001B6C786898471FE07B689B6C002B1BD0A8
:101BF8007B689B6C7868984716E07B681B681B6855
:101C080003F48073002B07D17B681B681A687B6814
:101C18001B6822F008021A607B681B6C002B03D03B
:101C28007B681B6C786898477B68DB6D20229A403C
:101C3800FB681340002B00F08F807B681B681B68D3
:101C480003F01003002B00F087807B68DB6D2022F7
:101C58009A403B699A607B6893F83530DBB2052B74
:101C680036D17B681B681A687B681B6822F01602ED
:101C78001A607B681B685A697B681B6822F08002BF
:101C88005A617B681B6C002B03D17B689B6C002B13
:101C980007D07B681B681A687B681B6822F00802FB
:101CA8001A607B68DB6D3F229A403B699A607B68CB
:101CB800012283F835207B68002283F834207B6872
:101CC8001B6D002B7ED07B681B6D7868984779E088
:101CD8007B681B681B6803F48023002B1DD07B687E
:101CE8001B681B6803F40023002B0DD17B685B6C19
:101CF800002B31D07B685B6C786898472CE000BF7C
:101D080000000020B5814E1B7B68DB6B002B23D0C5
:101D18007B68DB6B786898471EE07B681B681B68EC
:101D280003F48073002B0FD17B681B681A687B68EB
:101D38001B6822F010021A607B68012283F83520A4
:101D48007B68002283F834207B68DB6B002B03D090
:101D58007B68DB6B786898477B685B6D002B32D0BB
:101D68007B685B6D03F00103002B22D07B680522A2
:101D780083F835207B681B681A687B681B6822F02B
:101D880001021A60BB680133BB607A699A4207D3C3
:101D98007B681B681B6803F00103002BF2D100E08D
:101DA80000BF7B68012283F835207B68002283F816
:101DB80034207B68DB6C002B05D07B68DB6C786893
:101DC800984700E000BF1837BD4680BD80B485B095
:101DD80000AF78607B681B68DBB2103B144AA2FB3B
:101DE80003231B09FB60134AFB6813441B781A463C
:101DF8007B68DA65FB68032B09D97B681B6823F4C9
:101E08007F7323F003031A1D7B689A6507E07B68DC
:101E18001B6823F47F7323F003037A6893657B6858
:101E28009B6D18461437BD465DF8047B704700BFAC
:101E3800ABAAAAAA645D000880B485B000AF786038
:101E48000023FB737B689B6ABB607B689B69002BE4
:101E58001FD1BB68032B56D801A252F823F000BF4C
:101E6800791E00088B1E0008791E00080F1F000845
:101E78007B68DB6A03F08073002B46D00123FB7379
:101E880043E07B68DB6AB3F1C07F40D10123FB7379
:101E98003DE07B689B69B3F5005F21D1BB68032BEC
:101EA80037D801A252F823F0C11E0008C71E000847
:101EB800C11E0008D91E00080123FB7330E07B68AF
:101EC800DB6A03F08073002B25D00123FB7322E02B
:101ED8007B68DB6AB3F1C07F1FD10123FB731CE071
:101EE800BB68022B03D9BB68032B03D018E001237E
:101EF800FB7315E07B68DB6A03F08073002B0ED060
:101F08000123FB730BE000BF0AE000BF08E000BF3D
:101F180006E000BF04E000BF02E000BF00E000BF31
:101F2800FB7B18461437BD465DF8047B704700BF3D
:101F380080B584B000AF78607B68002B01D10123A5
:101F48006AE07B68D3F88430002B06D17B682322B3
:101F5800C3F884207868FEF7D9FF314B5B6C304AB0
:101F680043F4804353642E4B5B6C03F48043BB60A3
:101F7800BB682C4B5B682B4A23F400035360294B46
:101F88005A687B689B68274913434B60254B5B68FD
:101F98007B681B6803F580531B687A68126843F0F6
:101FA800010302F580521360FFF7D4FAF86011E0DC
:101FB800FFF7D0FA0246FB68D31AB3F5FA7F09D9BE
:101FC8007B680422C3F888207B68E022C3F8842059
:101FD800012321E07B681B6803F580531B6803F02D
:101FE8000103002BE4D1786800F058F9786800F014
:101FF800FFF9786800F055FA7B685B681A4600219B
:10200800786800F0BDF97B680022C3F888207B68F7
:102018001022C3F88420002318461037BD4680BD1F
:10202800003802400038014080B584B000AF7860C5
:1020380039607B681B681B68FB60FA68514B13406A
:10204800FB603B681B7C002B02D14FF4000200E0D0
:1020580000223B685B7C002B02D14FF4800300E038
:1020680000231A433B689B681A433B68DB7F1B04C9
:102078001A433B685B6913433A68927F002A02D18E
:102088004FF4005200E000221A433B681B7F1B03F9
:102098001A433B689B691A433B681B799B021343AD
:1020A8003A6892F82020002A02D14FF4007200E02A
:1020B80000221A433B68DB7BDB011A433B685B6AFF
:1020C8001A433B6893F828301B011343FA681343FB
:1020D800FB607B681B68FA681A607B681B681B6872
:1020E800FB600120FFF742FA7B681B68FA681A60F8
:1020F8007B681B689B69FB60FA684FF64173134065
:10210800FB603B689B6C1B043A6892F84C20002AE1
:1021180001D1802200E000221A433B681B6D134363
:102128003A6892F85520012A01D1082200E00022DD
:1021380013433A6892F85620012A01D1042200E09C
:10214800002213433A6892F85420012A01D102224E
:1021580000E000221343FA681343FB607B681B68A6
:10216800FA689A617B681B689B69FB600120FFF72E
:10217800FDF97B681B68FA689A6100BF1037BD4695
:1021880080BD00BF0F8120FF80B584B000AF7860AC
:1021980039607B681B6803F580539B69FB60FA68AC
:1021A8003D4B1340FB603B681B7B002B02D14FF07B
:1021B800806200E000223B685B7B5B0613433A6861
:1021C800527F002A02D14FF4801200E000221A4305
:1021D8003B689B7B5B051A433B685B691A433B681A
:1021E8001B7FDB011A433B689B7F9B011A433B68BB
:1021F8001B6A1A433B6893F824309B001343FA6820
:102208001343FB607B681B6803F580531A46FB6821
:1022180093617B681B6803F580539B69FB60012011
:10222800FFF7A4F97B681B6803F580531A46FB681F
:1022380093613B681B795A063B689B681A433B6865
:102248009B691A433B681B691A433B6893F825301E
:10225800DB011A433B689B6A9B001A433B681B6877
:1022680013437A68126843F4000302F5805213603E
:102278007B681B6803F580531B68FB600120FFF730
:1022880075F97B681B6803F580531A46FB68136071
:1022980000BF1037BD4680BD233FDEF880B5A6B02D
:1022A80000AF7860012387F84430012387F8453070
:1022B8000023FB63002387F85330012387F852304B
:1022C800002387F85030012387F83830002387F837
:1022D8005430002387F843300023BB65002387F878
:1022E8005C300023FB67002387F880300023C7F8A1
:1022F8008430002387F88A30002387F888304FF429
:102308008043BB644FF40063FB64002387F8893083
:1023180007F1340319467868FFF786FE01233B75F9
:1023280001237B75012387F825300123BB75002322
:10233800FB61002387F82430002387F82630002328
:10234800BB62012387F82C3001233B734FF48033A1
:102358003B614FF480033B624FF40053BB610123A0
:1023680087F82D3000233B630023BB6007F1080387
:1023780019467868FFF708FF00BF9837BD4680BD4B
:1023880080B487B000AFF860B9607A607B680533C5
:102398001B781B027A680432127813437B61BA688F
:1023A800114B13441A467B6913607B6803331B780F
:1023B8001A067B6802331B781B041A437B680133B7
:1023C8001B781B0213437A68127813437B61BA683F
:1023D800064B13441A467B69136000BF1C37BD4681
:1023E8005DF8047B704700BF408002404480024093
:1023F80080B485B000AF78600023FB603EE07B6866
:10240800D968FA6813469B001344DB000B44BB6091
:10241800BB6800221A60BB6800225A60BB680022B1
:102428009A60BB680022DA60B9687B68FA6806328D
:1024380043F82210BB681B6843F48012BB681A601B
:10244800FB68022B0CD87B68D968FB685A1C1346BA
:102458009B001344DB000B441A46BB68DA6004E0B7
:102468007B68DB681A46BB68DA60BB681B6843F4A4
:102478004002BB681A60FB680133FB60FB68032BF2
:10248800BDD97B6800229A627B68DA687B681B6822
:1024980003F580531A6100BF1437BD465DF8047B0D
:1024A800704780B485B000AF78600023FB6046E0D9
:1024B8007B681969FA6813469B001344DB000B44D8
:1024C800BB60BB6800221A60BB6800225A60BB6808
:1024D80000229A60BB680022DA60BB6800221A6298
:1024E800BB6800225A62BB684FF000421A60BB68A2
:1024F80044F2F4525A60BB685B6823F00042BB6840
:102508005A60B9687B68FA68123243F82210FB688F
:10251800022B0CD87B681969FB685A1C13469B0070
:102528001344DB000B441A46BB68DA6004E07B689E
:102538001B691A46BB68DA60FB680133FB60FB68FD
:10254800032BB5D97B680022DA657B6800221A66FE
:102558007B6800229A667B680022DA667B68002224
:102568009A657B681A697B681B6803F58053DA6093
:1025780000BF1437BD465DF8047B704780B489B04E
:1025880000AF786039600023FB6100237B61002382
:102598003B610023BB610023FB6175E10122FB69FC
:1025A80002FA03F37B613B681B687A6913403B615D
:1025B8003A697B699A4240F064813B685B6803F042
:1025C8000303012B05D03B685B6803F00303022B70
:1025D80030D17B689B68BB61FB695B00032202FA10
:1025E80003F3DB43BA691340BB613B68DA68FB69F4
:1025F8005B0002FA03F3BA691343BB617B68BA69EB
:102608009A607B685B68BB610122FB6902FA03F38D
:10261800DB43BA691340BB613B685B681B0903F085
:102628000102FB6902FA03F3BA691343BB617B68D1
:10263800BA695A603B685B6803F00303032B17D041
:102648007B68DB68BB61FB695B00032202FA03F36A
:10265800DB43BA691340BB613B689A68FB695B005E
:1026680002FA03F3BA691343BB617B68BA69DA609B
:102678003B685B6803F00303022B23D1FB69DA088C
:102688007B68083253F82230BB61FB6903F007030B
:102698009B000F2202FA03F3DB43BA691340BB61C4
:1026A8003B681A69FB6903F007039B0002FA03F30E
:1026B800BA691343BB61FB69DA087B680832B969F8
:1026C80043F822107B681B68BB61FB695B0003222F
:1026D80002FA03F3DB43BA691340BB613B685B68EA
:1026E80003F00302FB695B0002FA03F3BA691343C0
:1026F800BB617B68BA691A603B685B6803F4403366
:10270800002B00F0BE80664B5B6C654A43F4804347
:102718005364634B5B6C03F48043FB60FB68614A62
:10272800FB699B08023352F82330BB61FB6903F055
:1027380003039B000F2202FA03F3DB43BA69134039
:10274800BB617B68584A934237D07B68574A9342AB
:1027580031D07B68564A93422BD07B68554A9342C6
:1027680025D07B68544A93421FD07B68534A9342D2
:1027780019D07B68524A934213D07B68514A9342DE
:102788000DD07B68504A934207D07B684F4A9342EA
:1027980001D1092312E00A2310E008230EE00723E1
:1027A8000CE006230AE0052308E0042306E00323DF
:1027B80004E0022302E0012300E00023FA6902F0AA
:1027C800030292009340BA691343BB613549FB6920
:1027D8009B080233BA6941F823203D4B9B68BB61D3
:1027E8003B69DB43BA691340BB613B685B6803F430
:1027F8008013002B03D0BA693B691343BB61344A89
:10280800BB699360324BDB68BB613B69DB43BA69E8
:102818001340BB613B685B6803F40013002B03D0D3
:10282800BA693B691343BB61294ABB69D360284B2A
:102838005B68BB613B69DB43BA691340BB613B68BA
:102848005B6803F40033002B03D0BA693B69134378
:10285800BB611F4ABB6953601D4B1B68BB613B6969
:10286800DB43BA691340BB613B685B6803F48033A0
:10287800002B03D0BA693B691343BB61144ABB6997
:102888001360FB690133FB61FB690F2B7FF686AE92
:1028980000BF00BF2437BD465DF8047B704700BF0A
:1028A80000380240003801400000024000040240A5
:1028B80000080240000C02400010024000140240D0
:1028C80000180240001C0240002002400024024080
:1028D800003C014080B483B000AF78600B467B8039
:1028E80013467B707B78002B03D07A887B689A61CB
:1028F80003E07B881A047B689A6100BF0C37BD46E9
:102908005DF8047B704780B582B000AF78607B6863
:10291800002B01D1012381E07B6893F84130DBB2C1
:10292800002B06D17B68002283F840207868FEF7E8
:10293800A5FB7B68242283F841207B681B681A6802
:102948007B681B6822F001021A607B685A687B6802
:102958001B6822F070621A617B681B689A687B6842
:102968001B6822F400429A607B68DB68012B07D160
:102978007B689A687B681B6842F400429A6006E0AC
:102988007B689A687B681B6842F404429A607B689B
:10299800DB68022B04D17B681B684FF400625A6025
:1029A8007B681B685B687A68126843F0007343F4BD
:1029B800004353607B681B68DA687B681B6822F4F5
:1029C8000042DA607B681A697B685B6942EA030146
:1029D8007B689B691A027B681B680A43DA607B681C
:1029E800D9697B681A6A7B681B680A431A607B6826
:1029F8001B681A687B681B6842F001021A607B68D2
:102A080000225A647B68202283F841207B680022D8
:102A18001A637B68002283F842200023184608378F
:102A2800BD4680BD80B483B000AF786039607B68F4
:102A380093F84130DBB2202B38D17B6893F84030D3
:102A4800012B01D1022332E07B68012283F8402068
:102A58007B68242283F841207B681B681A687B689E
:102A68001B6822F001021A607B681B681A687B6881
:102A78001B6822F480521A607B681B6819687B689F
:102A88001B683A680A431A607B681B681A687B6887
:102A98001B6842F001021A607B68202283F84120FB
:102AA8007B68002283F84020002300E002231846B8
:102AB8000C37BD465DF8047B704780B485B000AF25
:102AC800786039607B6893F84130DBB2202B39D1CC
:102AD8007B6893F84030012B01D1022333E07B68F7
:102AE800012283F840207B68242283F841207B68F8
:102AF8001B681A687B681B6822F001021A607B68F1
:102B08001B681B68FB60FB6823F47063FB603B6811
:102B18001B02FA681343FB607B681B68FA681A603B
:102B28007B681B681A687B681B6842F001021A60A0
:102B38007B68202283F841207B68002283F84020AC
:102B4800002300E0022318461437BD465DF8047BD5
:102B58007047F0B58FB00AAF78607B68002B01D161
:102B6800012316E17B681B68BB607B6893F8BD3462
:102B7800DBB2002B06D17B68002283F8BC2478687E
:102B8800FEF7D6FB7B68032283F8BD24BB68DB6BAA
:102B980003F48073002B02D17B6800221A617B68E2
:102BA8001B68184602F0F4FD7B681B683B607E6872
:102BB8006D4606F110040FCC0FC50FCC0FC594E875
:102BC800030085E80300331D0ECB386802F089FD49
:102BD8000346002B05D07B68022283F8BD2401231D
:102BE800D7E07B681B680021184602F0E2FD00234D
:102BF800FB734AE0FA7B79681346DB0013449B00B9
:102C08000B443D3301221A70FA7B79681346DB00C6
:102C180013449B000B443C33FA7B1A70FA7BFB7B12
:102C280098B279681346DB0013449B000B44443385
:102C380002461A80FA7B79681346DB0013449B002E
:102C48000B44403300221A70FA7B79681346DB0084
:102C580013449B000B44483300221A60FA7B7968BE
:102C68001346DB0013449B000B444C3300221A60CC
:102C7800FA7B79681346DB0013449B000B445433FA
:102C880000221A60FB7B0133FB73FA7B7B685B686D
:102C98009A42AFD30023FB7344E0FA7B796813466A
:102CA800DB0013449B000B4403F27D2300221A70BF
:102CB800FA7B79681346DB0013449B000B4403F549
:102CC8001F73FA7B1A70FA7B79681346DB0013448A
:102CD8009B000B4403F5207300221A70FA7B796875
:102CE8001346DB0013449B000B4403F522730022B8
:102CF8001A60FA7B79681346DB0013449B000B4487
:102D080003F5237300221A60FA7B79681346DB0007
:102D180013449B000B4403F5257300221A60FB7BC8
:102D28000133FB73FA7B7B685B689A42B5D37B6897
:102D38001B683B607E686D4606F110040FCC0FC51A
:102D48000FCC0FC594E8030085E80300331D0ECBB4
:102D5800386802F07BFD0346002B05D07B68022211
:102D680083F8BD24012314E07B68002283F838200F
:102D78007B68012283F8BD247B685B6A012B02D142
:102D8800786800F00AF87B681B68184602F039FF7B
:102D9800002318461437BD46F0BD80B485B000AF97
:102DA80078607B681B68FB607B680122C3F800259C
:102DB8007B68002283F8F424FB689B6943F0006277
:102DC800FB689A61FB685B6D43F0805343F0030333
:102DD800FA685365002318461437BD465DF8047B2E
:102DE8007047000080B400AF054B1B68044A43F4E9
:102DF8008073136000BFBD465DF8047B704700BF59
:102E08000070004080B582B000AF00237B60234B88
:102E18001B6C224A43F080531364204B1B6C03F055
:102E280080533B603B681E4B1B681D4A43F480334C
:102E38001360FEF78FFB786009E0FEF78BFB024614
:102E48007B68D31AB3F57A7F01D9032322E0144BA8
:102E58005B6803F48033B3F5803FEED1104B1B68F9
:102E68000F4A43F400331360FEF774FB786009E0FF
:102E7800FEF770FB02467B68D31AB3F57A7F01D957
:102E8800032307E0064B5B6803F40033B3F5003F08
:102E9800EED1002318460837BD4680BD00380240F1
:102EA8000070004080B586B000AF78600023FB75E5
:102EB8007B68002B01D101239BE27B681B6803F030
:102EC8000103002B00F08780964B9B6803F00C03EE
:102ED800042B0CD0934B9B6803F00C03082B12D1E6
:102EE800904B5B6803F48003B3F5800F0BD18D4BD7
:102EF8001B6803F40033002B6CD07B685B68002BE5
:102F080068D1012375E27B685B68B3F5803F06D121
:102F1800844B1B68834A43F4803313602EE07B683C
:102F28005B68002B0CD17F4B1B687E4A23F48033EF
:102F380013607C4B1B687B4A23F4802313601DE0DD
:102F48007B685B68B3F5A02F0CD1764B1B68754A7C
:102F580043F480231360734B1B68724A43F4803335
:102F680013600BE06F4B1B686E4A23F480331360C9
:102F78006C4B1B686B4A23F4802313607B685B6887
:102F8800002B13D0FEF7E6FA386108E0FEF7E2FA04
:102F980002463B69D31A642B01D9032329E2614B0A
:102FA8001B6803F40033002BF0D014E0FEF7D2FACC
:102FB800386108E0FEF7CEFA02463B69D31A642B63
:102FC80001D9032315E2574B1B6803F40033002B88
:102FD800F0D100E000BF7B681B6803F00203002B00
:102FE80069D0504B9B6803F00C03002B0BD04D4B62
:102FF8009B6803F00C03082B1CD14A4B5B6803F455
:103008008003002B16D1474B1B6803F00203002BEB
:1030180005D07B68DB68012B01D00123E9E1414B36
:103028001B6823F0F8027B681B69DB003D491343EA
:103038000B6040E07B68DB68002B23D0394B1B68B2
:10304800384A43F001031360FEF784FA386108E058
:10305800FEF780FA02463B69D31A022B01D90323F3
:10306800C7E1304B1B6803F00203002BF0D02D4B57
:103078001B6823F0F8027B681B69DB0029491343AE
:103088000B6018E0274B1B68264A23F001031360E6
:10309800FEF760FA386108E0FEF75CFA02463B6921
:1030A800D31A022B01D90323A3E11E4B1B6803F09B
:1030B8000203002BF0D17B681B6803F00803002B88
:1030C80038D07B685B69002B19D0164B5B6F154AAB
:1030D80043F001035367FEF73DFA386108E0FEF755
:1030E80039FA02463B69D31A022B01D9032380E13E
:1030F8000C4B5B6F03F00203002BF0D01AE0094B76
:103108005B6F084A23F001035367FEF723FA38611F
:103118000AE0FEF71FFA02463B69D31A022B03D9CD
:10312800032366E100380240924B5B6F03F0020311
:10313800002BEED17B681B6803F00403002B00F022
:10314800A4808C4B1B6C03F08053002B0DD1894B52
:103158001B6C884A43F080531364864B1B6C03F046
:103168008053BB60BB680123FB75834B1B6803F46A
:103178008073002B18D1804B1B687F4A43F48073FF
:103188001360FEF7E7F9386108E0FEF7E3F9024655
:103198003B69D31A642B01D903232AE1764B1B68B8
:1031A80003F48073002BF0D07B689B68012B06D159
:1031B800704B1B6F6F4A43F0010313672DE07B6868
:1031C8009B68002B0CD16B4B1B6F6A4A23F00103E1
:1031D8001367684B1B6F674A23F0040313671CE0EF
:1031E8007B689B68052B0CD1624B1B6F614A43F0CF
:1031F800040313675F4B1B6F5E4A43F001031367B9
:103208000BE05C4B1B6F5B4A23F001031367594BC0
:103218001B6F584A23F0040313677B689B68002BD5
:1032280015D0FEF797F938610AE0FEF793F90246E0
:103238003B69D31A41F28832934201D90323D8E07B
:103248004C4B1B6F03F00203002BEED014E0FEF78B
:1032580081F938610AE0FEF77DF902463B69D31A25
:1032680041F28832934201D90323C2E0414B1B6FDC
:1032780003F00203002BEED1FB7D012B05D13D4B62
:103288001B6C3C4A23F0805313647B689B69002BBA
:1032980000F0AE80374B9B6803F00C03082B6DD011
:1032A8007B689B69022B4BD1324B1B68314A23F058
:1032B80080731360FEF74EF9386108E0FEF74AF9AB
:1032C80002463B69D31A022B01D9032391E0294B0B
:1032D8001B6803F00073002BF0D17B68DA697B6808
:1032E8001B6A1A437B685B6A9B011A437B689B6A6B
:1032F8005B08013B1B041A437B68DB6A1B061A4305
:103308007B681B6B1B071B4913434B60194B1B68DE
:10331800184A43F080731360FEF71CF9386108E01F
:10332800FEF718F902463B69D31A022B01D9032389
:103338005FE0104B1B6803F00073002BF0D057E0E0
:103348000C4B1B680B4A23F080731360FEF702F9DD
:10335800386108E0FEF7FEF802463B69D31A022BF3
:1033680001D9032345E0034B1B6803F00073002BCE
:10337800F0D13DE000380240007000401F4B5B6810
:10338800FB607B689B69012B30D0FB6803F48002EB
:103398007B68DB699A4229D1FB6803F03F027B68AE
:1033A8001B6A9A4222D1FA6847F6C07313407A68BA
:1033B800526A9201934219D1FB6803F440327B6848
:1033C8009B6A5B08013B1B049A420FD1FB6803F020
:1033D80070627B68DB6A1B069A4207D1FB6803F0C0
:1033E800E0427B681B6B1B079A4201D0012300E077
:1033F800002318461837BD4680BD00BF003802407C
:1034080080B584B000AF786039600023FB607B68CA
:10341800002B01D10123D0E06A4B1B6803F00F0396
:103428003A689A4210D9674B1B6823F00F02654926
:103438003B6813430B60634B1B6803F00F033A6848
:103448009A4201D00123B8E07B681B6803F00203AD
:10345800002B20D07B681B6803F00403002B05D0E9
:10346800594B9B68584A43F4E05393607B681B6848
:1034780003F00803002B05D0534B9B68524A43F4D2
:1034880060439360504B9B6823F0F0027B689B6815
:103498004D4913438B607B681B6803F00103002BC5
:1034A80040D07B685B68012B07D1474B1B6803F44E
:1034B8000033002B15D101237FE07B685B68022B6A
:1034C80007D1414B1B6803F00073002B09D101237E
:1034D80073E03D4B1B6803F00203002B01D101236D
:1034E8006BE0394B9B6823F003027B685B683649C5
:1034F80013438B60FEF72EF8F8600AE0FEF72AF80F
:103508000246FB68D31A41F28832934201D9032359
:1035180053E02D4B9B6803F00C027B685B689B00B3
:103528009A42EBD1274B1B6803F00F033A689A4283
:1035380010D2244B1B6823F00F0222493B68134327
:103548000B60204B1B6803F00F033A689A4201D0C6
:10355800012332E07B681B6803F00403002B08D0CA
:10356800194B9B6823F4E0527B68DB6816491343C8
:103578008B607B681B6803F00803002B09D0124B93
:103588009B6823F460427B681B69DB000E49134388
:103598008B6000F021F802460B4B9B681B0903F077
:1035A8000F030A49CB5C22FA03F3094A1360094B5B
:1035B8001B681846FDF78AFF002318461037BD46DA
:1035C80080BD00BF003C0240003802404C5D00084E
:1035D80000000020040000202DE9B04F94B000AF97
:1035E80000237B640023FB6400233B640023BB644B
:1035F800794B9B6803F00C03082B0DD0082B00F2C5
:10360800E180002B02D0042B03D0DBE0734BBB64BA
:10361800DBE0734BBB64D8E06F4B5B6803F03F03A0
:103628007B646D4B5B6803F48003002B63D06A4BAB
:103638005B689B090022BB63FA63BB6BC3F3080397
:103648003B6300237B63D7E90C4522462B464FF0AA
:1036580000004FF00001590141EAD26150010246D1
:103668000B462146511A3961294663EB01037B61F8
:103678004FF000024FF00003D7E904AB59468B0125
:10368800514643EA916351468A015146B2EB01081B
:10369800594663EB01094FF000024FF000034FEA6F
:1036A800C90343EA58734FEAC8029046994623462D
:1036B80018EB0303BB602B4649EB0303FB604FF099
:1036C80000024FF00003D7E9024529464B02214684
:1036D80043EAD15321464A02104619467B6C002220
:1036E800BB62FA62D7E90A23FCF7A2FD02460B4641
:1036F8001346FB6458E0384B5B689B090022184668
:103708001146C0F308033B6200237B62D7E90889AE
:1037180042464B464FF000004FF00001590141EA84
:10372800D261500102460B464146B2EB010A4946B6
:1037380063EB010B4FF000024FF000034FEA8B13CD
:1037480043EA9A634FEA8A12B2EB0A0463EB0B0569
:103758004FF000024FF00003EB0043EA5473E2001D
:1037680014461D464346E3183B604B4645EB0303AE
:103778007B604FF000024FF00003D7E9004529466F
:103788008B02214643EA915321468A021046194684
:103798007B6C0022BB61FA61D7E90623FCF748FD80
:1037A80002460B461346FB640B4B5B681B0C03F08D
:1037B800030301335B003B64FA6C3B6CB2FBF3F32D
:1037C800BB6402E0054BBB6400BFBB6C18465037B6
:1037D800BD46BDE8B08F00BF003802400024F400A9
:1037E80000127A0080B400AF034B1B681846BD4630
:1037F8005DF8047B704700BF0000002080B500AF73
:10380800FFF7F0FF0246054B9B689B0A03F007038E
:103818000349CB5C22FA03F3184680BD0038024006
:103828005C5D000880B500AFFFF7DCFF0246054B82
:103838009B685B0B03F007030349CB5C22FA03F395
:10384800184680BD003802405C5D000880B588B02D
:1038580000AF786000237B6100233B610023FB609D
:103868000023FB610023BB617B681B6803F0010335
:10387800002B12D06A4B9B68694A23F400039360BB
:10388800674B9A687B685B6B654913438B607B6801
:103898005B6B002B01D10123FB617B681B6803F480
:1038A8000023002B17D05E4BD3F88C3023F4401242
:1038B8007B68DB6B5A491343C1F88C307B68DB6B40
:1038C800B3F5801F01D10123FB617B68DB6B002B03
:1038D80001D10123BB617B681B6803F48013002BB3
:1038E80017D04F4BD3F88C3023F440027B681B6C05
:1038F8004B491343C1F88C307B681B6CB3F5800FC0
:1039080001D10123FB617B681B6C002B01D10123D2
:10391800BB617B681B6803F08073002B01D0012317
:10392800FB617B681B6803F02003002B00F08B8091
:103938003B4B1B6C3A4A43F080531364384B1B6C67
:1039480003F08053BB60BB68364B1B68354A43F4B1
:1039580080731360FDF7FEFD786108E0FDF7FAFD5E
:1039680002467B69D31A642B01D903238FE32D4BBD
:103978001B6803F48073002BF0D0294B1B6F03F4F2
:1039880040733B613B69002B35D07B681B6B03F4AC
:1039980040733A699A422ED0214B1B6F23F440732F
:1039A8003B611F4B1B6F1E4A43F4803313671C4B4C
:1039B8001B6F1B4A23F480331367194A3B6913674B
:1039C800174B1B6F03F00103012B14D1FDF7C2FD48
:1039D80078610AE0FDF7BEFD02467B69D31A41F221
:1039E8008832934201D9032351E30D4B1B6F03F037
:1039F8000203002BEED07B681B6B03F44073B3F516
:103A0800407F11D1064B9B6823F4F8127B681B6B2F
:103A180023F0704323F44073014913438B6009E09A
:103A28000038024000700040AC4B9B68AB4A23F45E
:103A3800F8139360A94B1A6F7B681B6BC3F30B03D6
:103A4800A64913430B677B681B6803F01003002B20
:103A580010D0A24BD3F88C30A04A23F08073C2F860
:103A68008C309E4BD3F88C207B689B6B9B4913430F
:103A7800C1F88C307B681B6803F48043002B0AD0A4
:103A8800964BD3F8903023F440327B685B6E9349B1
:103A98001343C1F890307B681B6803F40043002B84
:103AA8000AD08E4BD3F8903023F440227B689B6E6B
:103AB8008A491343C1F890307B681B6803F480334C
:103AC800002B0AD0854BD3F8903023F440127B6842
:103AD800DB6E82491343C1F890307B681B6803F49E
:103AE8000033002B0AD07D4BD3F8903023F44002EA
:103AF8007B681B6F79491343C1F890307B681B685A
:103B080003F04003002B0AD0744BD3F8903023F015
:103B180003027B685B6C71491343C1F890307B6882
:103B28001B6803F08003002B0AD06C4BD3F890304D
:103B380023F00C027B689B6C68491343C1F89030F2
:103B48007B681B6803F48073002B0AD0634BD3F89F
:103B5800903023F030027B68DB6C60491343C1F876
:103B680090307B681B6803F40073002B0AD05B4B12
:103B7800D3F8903023F0C0027B681B6D574913437C
:103B8800C1F890307B681B6803F48063002B0AD06F
:103B9800524BD3F8903023F440727B685B6D4F49E9
:103BA8001343C1F890307B681B6803F40063002B53
:103BB8000AD04A4BD3F8903023F440627B689B6D5F
:103BC80046491343C1F890307B681B6803F480535F
:103BD800002B0AD0414BD3F8903023F440527B6835
:103BE800DB6D3E491343C1F890307B681B6803F4D2
:103BF8000053002B0AD0394BD3F8903023F44042BD
:103C08007B681B6E35491343C1F890307B681B688D
:103C180003F48003002B0AD0304BD3F8903023F004
:103C280080627B689B6F2D491343C1F890307B6895
:103C38001B6803F40013002B11D0284BD3F89030E5
:103C480023F000627B68DB6F24491343C1F890308E
:103C58007B68DB6FB3F1006F01D10123BB617B6827
:103C68001B6803F00803002B01D00123BB617B68AC
:103C78001B6803F48023002B0AD0184BD3F890302C
:103C880023F040727B685B6F14491343C1F890308E
:103C98007B681B6803F40003002B0BD00F4BD3F891
:103CA800903023F080527B68D3F880300B4913435F
:103CB800C1F890307B681B6803F08063002B0FD03D
:103CC800064BD3F8903023F000527B68D3F8843049
:103CD80002491343C1F8903002E000BF00380240A7
:103CE8007B681B6803F00063002B0BD08A4BD3F86A
:103CF8008C3023F000727B68D3F8883086491343F0
:103D0800C1F88C307B681B6803F08053002B0BD004
:103D1800814BD3F88C3023F080627B68D3F88C30E9
:103D28007D491343C1F88C30FB69012B06D07B68B1
:103D38001B6803F00073002B00F0D680764B1B68DD
:103D4800754A23F080631360FDF704FC786108E08E
:103D5800FDF700FC02467B69D31A642B01D90323C3
:103D680095E16D4B1B6803F00063002BF0D17B6875
:103D78001B6803F00103002B21D07B685B6B002BD1
:103D88001DD1654BD3F884301B0C03F003033B6152
:103D9800614BD3F884301B0E03F00F03FB607B6884
:103DA8005B689A013B691B041A43FB681B061A43AC
:103DB8007B689B681B0758491343C1F884307B68AC
:103DC8001B6803F40023002B04D07B68DB6BB3F57E
:103DD800801F0AD07B681B6803F48013002B2ED049
:103DE8007B681B6CB3F5800F29D14B4BD3F884301B
:103DF8001B0C03F003033B61474BD3F884301B0FC4
:103E080003F00703FB607B685B689A013B691B044E
:103E18001A437B68DB681B061A43FB681B073E498D
:103E28001343C1F884303C4BD3F88C3023F01F0285
:103E38007B685B6A013B38491343C1F88C307B6867
:103E48001B6803F08073002B1DD0334BD3F88430EC
:103E58001B0E03F00F033B612F4BD3F884301B0F6D
:103E680003F00703FB607B685B689A017B681B694A
:103E78001B041A433B691B061A43FB681B072649A8
:103E88001343C1F884307B681B6803F00073002B70
:103E980011D07B685B689A017B681B691B041A4315
:103EA8007B68DB681B061A437B689B681B071A49FB
:103EB8001343C1F88430184B1B68174A43F08063DA
:103EC8001360FDF747FB786108E0FDF743FB024606
:103ED8007B69D31A642B01D90323D8E00E4B1B68E6
:103EE80003F00063002BF0D0BB69012B40F0CE80BB
:103EF800094B1B68084A23F080531360FDF72AFB1F
:103F080078610BE0FDF726FB02467B69D31A642B28
:103F180004D90323BBE000BF003802405E4B1B6896
:103F280003F00053B3F1005FECD07B681B6803F427
:103F38000023002B03D07B68DB6B002B09D07B6848
:103F48001B6803F48013002B2ED07B681B6C002B9E
:103F58002AD1514BD3F888301B0C03F003033B6183
:103F68004D4BD3F888301B0F03F00703FB607B68C9
:103F78005B699A013B691B041A437B689B691B06B2
:103F88001A43FB681B0744491343C1F88830424B66
:103F9800D3F88C3023F4F8527B689B6A013B1B02F0
:103FA8003D491343C1F88C307B681B6803F4001348
:103FB800002B22D07B68DB6FB3F1006F1DD1364B2D
:103FC800D3F888301B0E03F00F033B61324BD3F854
:103FD80088301B0F03F00703FB607B685B699A015D
:103FE8007B681B6A1B041A433B691B061A43FB6860
:103FF8001B0729491343C1F888307B681B6803F005
:104008000803002B28D0244BD3F888301B0E03F06C
:104018000F033B61204BD3F888301B0C03F00303DC
:10402800FB607B685B699A01FB681B041A433B6968
:104038001B061A437B68DB691B0717491343C1F842
:104048008830154BD3F88C3023F440327B68DB6A18
:1040580011491343C1F88C300F4B1B680E4A43F0CB
:1040680080531360FDF776FA786108E0FDF772FA7D
:1040780002467B69D31A642B01D9032307E0064B58
:104088001B6803F00053B3F1005FEFD1002318461B
:104098002037BD4680BD00BF0038024080B582B0E1
:1040A80000AF78607B68002B01D1012349E07B6871
:1040B80093F83D30DBB2002B06D17B68002283F8F1
:1040C8003C207868FDF73AF87B68022283F83D20A7
:1040D8007B681A687B6804331946104600F074FA46
:1040E8007B68012283F848207B68012283F83E2000
:1040F8007B68012283F83F207B68012283F84020F7
:104108007B68012283F841207B68012283F84220E2
:104118007B68012283F843207B68012283F84420CE
:104128007B68012283F845207B68012283F84620BA
:104138007B68012283F847207B68012283F83D20B1
:10414800002318460837BD4680BD80B582B000AF51
:1041580078607B68002B01D1012349E07B6893F8E4
:104168003D30DBB2002B06D17B68002283F83C206F
:10417800786800F041F87B68022283F83D207B686C
:104188001A687B6804331946104600F01DFA7B68EC
:10419800012283F848207B68012283F83E207B684F
:1041A800012283F83F207B68012283F840207B6846
:1041B800012283F841207B68012283F842207B6832
:1041C800012283F843207B68012283F844207B681E
:1041D800012283F845207B68012283F846207B680A
:1041E800012283F847207B68012283F83D200023C1
:1041F80018460837BD4680BD80B483B000AF7860EC
:1042080000BF0C37BD465DF8047B704780B586B0AB
:1042180000AFF860B9607A600023FB75FB6893F81B
:104228003C30012B01D10223FFE0FB68012283F817
:104238003C207B68142B00F2F08001A252F823F096
:104248009D42000823440008234400082344000832
:10425800DD420008234400082344000823440008E2
:104268001F4300082344000823440008234400088F
:104278005F4300082344000823440008234400083F
:10428800A1430008234400082344000823440008ED
:10429800E1430008FB681B68B968184600F034FA67
:1042A800FB681B689A69FB681B6842F008029A6100
:1042B800FB681B689A69FB681B6822F004029A6114
:1042C800FB681B689969BB681A69FB681B680A4325
:1042D8009A61A5E0FB681B68B968184600F086FA81
:1042E800FB681B689A69FB681B6842F400629A6164
:1042F800FB681B689A69FB681B6822F480629A61F4
:10430800FB681B689969BB681B691A02FB681B6814
:104318000A439A6184E0FB681B68B968184600F094
:10432800DDFAFB681B68DA69FB681B6842F0080263
:10433800DA61FB681B68DA69FB681B6822F0040213
:10434800DA61FB681B68D969BB681A69FB681B6876
:104358000A43DA6164E0FB681B68B968184600F034
:1043680033FBFB681B68DA69FB681B6842F4006270
:10437800DA61FB681B68DA69FB681B6822F48062F3
:10438800DA61FB681B68D969BB681B691A02FB689C
:104398001B680A43DA6143E0FB681B68B968184682
:1043A80000F06AFBFB681B685A6DFB681B6842F0EB
:1043B80008025A65FB681B685A6DFB681B6822F087
:1043C80004025A65FB681B68596DBB681A69FB686B
:1043D8001B680A435A6523E0FB681B68B9681846DE
:1043E80000F09CFBFB681B685A6DFB681B6842F475
:1043F80000625A65FB681B685A6DFB681B6822F4EB
:1044080080625A65FB681B68596DBB681B691A0294
:10441800FB681B680A435A6502E00123FB7500BF6D
:10442800FB68002283F83C20FB7D18461837BD4600
:1044380080BD00BF80B584B000AF786039600023CC
:10444800FB737B6893F83C30012B01D10223B6E063
:104458007B68012283F83C207B68022283F83D2098
:104468007B681B689B68BB60BB6823F4803323F0C0
:104478007703BB60BB6823F47F43BB607B681B6822
:10448800BA689A603B681B68B3F5005F3ED0B3F525
:10449800005F00F28780B3F5805F00F08680B3F597
:1044A800805F7FD8702B1AD0702B7BD8602B50D0B0
:1044B800602B77D8502B3CD0502B73D8402B58D03A
:1044C800402B6FD8302B64D0302B6BD8202B60D08A
:1044D800202B67D8002B5CD0102B5AD062E07B6869
:1044E80018683B6899683B685A683B68DB6800F065
:1044F800E3FB7B681B689B68BB60BB6843F0770382
:10450800BB607B681B68BA689A604FE07B68186874
:104518003B6899683B685A683B68DB6800F0CCFBED
:104528007B681B689A687B681B6842F480429A60C3
:104538003CE07B6818683B6859683B68DB681A464A
:1045480000F040FB7B681B685021184600F099FB7F
:104558002CE07B6818683B6859683B68DB681A463A
:1045680000F05FFB7B681B686021184600F089FB40
:104578001CE07B6818683B6859683B68DB681A462A
:1045880000F020FB7B681B684021184600F079FB8F
:104598000CE07B681A683B681B681946104600F0F7
:1045A80070FB03E00123FB7300E000BF7B6801227E
:1045B80083F83D207B68002283F83C20FB7B18466B
:1045C8001037BD4680BD000080B485B000AF78606C
:1045D80039607B681B68FB607B68404A934213D054
:1045E8007B68B3F1804F0FD07B683D4A93420BD074
:1045F8007B683C4A934207D07B683B4A934203D08E
:104608007B683A4A934208D1FB6823F07003FB6049
:104618003B685B68FA681343FB607B682F4A9342E8
:104628002BD07B68B3F1804F27D07B682C4A93420C
:1046380023D07B682B4A93421FD07B682A4A934237
:104648001BD07B68294A934217D07B68284A93423B
:1046580013D07B68274A93420FD07B68264A93423F
:104668000BD07B68254A934207D07B68244A934243
:1046780003D07B68234A934208D1FB6823F4407334
:10468800FB603B68DB68FA681343FB60FB6823F058
:1046980080023B685B691343FB607B68FA681A60B9
:1046A8003B689A687B68DA623B681A687B689A623A
:1046B8007B680A4A934203D07B680C4A934203D131
:1046C8003B681A697B681A637B6801225A6100BFDC
:1046D8001437BD465DF8047B704700BF00000140F9
:1046E8000004004000080040000C004000040140A5
:1046F80000400140004401400048014000180040CB
:10470800001C00400020004080B487B000AF7860F3
:1047180039607B681B6A23F001027B681A627B6838
:104728001B6A7B617B685B683B617B689B69FB609C
:10473800FB6823F4803323F07003FB60FB6823F0ED
:104748000303FB603B681B68FA681343FB607B69E3
:1047580023F002037B613B689B687A6913437B61A2
:104768007B68204A934203D07B681F4A93420CD14E
:104778007B6923F008037B613B68DB687A69134334
:104788007B617B6923F004037B617B68154A934254
:1047980003D07B68144A934211D13B6923F4807398
:1047A8003B613B6923F400733B613B685B693A6991
:1047B80013433B613B689B693A6913433B617B68E0
:1047C8003A695A607B68FA689A613B685A687B68FC
:1047D8005A637B687A691A6200BF1C37BD465DF868
:1047E800047B7047000001400004014080B487B09A
:1047F80000AF786039607B681B6A23F010027B6821
:104808001A627B681B6A7B617B685B683B617B68BB
:104818009B69FB60FB6823F0807323F4E043FB6033
:10482800FB6823F44073FB603B681B681B02FA6853
:104838001343FB607B6923F020037B613B689B6823
:104848001B017A6913437B617B68224A934203D038
:104858007B68214A93420DD17B6923F080037B61F9
:104868003B68DB681B017A6913437B617B6923F032
:1048780040037B617B68174A934203D07B68164AE2
:10488800934213D13B6923F480633B613B6923F472
:1048980000633B613B685B699B003A6913433B617A
:1048A8003B689B699B003A6913433B617B683A69A3
:1048B8005A607B68FA689A613B685A687B689A63B1
:1048C8007B687A691A6200BF1C37BD465DF8047BB5
:1048D800704700BF000001400004014080B487B069
:1048E80000AF786039607B681B6A23F480727B684C
:1048F8001A627B681B6A7B617B685B683B617B68CB
:10490800DB69FB60FB6823F4803323F07003FB60F2
:10491800FB6823F00303FB603B681B68FA681343DA
:10492800FB607B6923F400737B613B689B681B0217
:104938007A6913437B617B68214A934203D07B6881
:10494800204A93420DD17B6923F400637B613B6865
:10495800DB681B027A6913437B617B6923F48063FC
:104968007B617B68164A934203D07B68154A934261
:1049780013D13B6923F480533B613B6923F4005313
:104988003B613B685B691B013A6913433B613B68C8
:104998009B691B013A6913433B617B683A695A601A
:1049A8007B68FA68DA613B685A687B68DA637B6817
:1049B8007A691A6200BF1C37BD465DF8047B7047F0
:1049C800000001400004014080B487B000AF786067
:1049D80039607B681B6A23F480527B681A627B68A3
:1049E8001B6A3B617B685B687B617B68DB69FB609A
:1049F800FB6823F0807323F4E043FB60FB6823F437
:104A08004073FB603B681B681B02FA681343FB603A
:104A18003B6923F400533B613B689B681B033A697D
:104A280013433B617B68124A934203D07B68114A67
:104A3800934209D17B6923F480437B613B685B69BE
:104A48009B017A6913437B617B687A695A607B684A
:104A5800FA68DA613B685A687B681A647B683A6965
:104A68001A6200BF1C37BD465DF8047B704700BF63
:104A7800000001400004014080B487B000AF7860B6
:104A880039607B681B6A23F480327B681A627B6812
:104A98001B6A3B617B685B687B617B685B6DFB6065
:104AA800FB6823F4803323F07003FB603B681B68CA
:104AB800FA681343FB603B6923F400333B613B68AE
:104AC8009B681B043A6913433B617B68114A934214
:104AD80003D07B68104A934209D17B6923F4803361
:104AE8007B613B685B691B027A6913437B617B6866
:104AF8007A695A607B68FA685A653B685A687B68C5
:104B08009A657B683A691A6200BF1C37BD465DF832
:104B1800047B7047000001400004014080B487B066
:104B280000AF786039607B681B6A23F480127B6869
:104B38001A627B681B6A3B617B685B687B617B6888
:104B48005B6DFB60FB6823F0807323F4E043FB603C
:104B58003B681B681B02FA681343FB603B6923F43C
:104B680000133B613B689B681B053A6913433B6133
:104B78007B68124A934203D07B68114A934209D159
:104B88007B6923F480237B613B685B699B027A69BC
:104B980013437B617B687A695A607B68FA685A6557
:104BA8003B685A687B68DA657B683A691A6200BFB5
:104BB8001C37BD465DF8047B704700BF000001400C
:104BC8000004014080B487B000AFF860B9607A6033
:104BD800FB681B6A7B61FB681B6A23F00102FB68A8
:104BE8001A62FB689B693B613B6923F0F0033B61F8
:104BF8007B681B013A6913433B617B6923F00A0315
:104C08007B617A69BB6813437B61FB683A699A6187
:104C1800FB687A691A6200BF1C37BD465DF8047BE1
:104C2800704780B487B000AFF860B9607A60FB68FD
:104C38001B6A23F01002FB681A62FB689B697B61A0
:104C4800FB681B6A3B617B6923F470437B617B686B
:104C58001B037A6913437B613B6923F0A0033B6123
:104C6800BB681B013A6913433B61FB687A699A6127
:104C7800FB683A691A6200BF1C37BD465DF8047BC1
:104C8800704780B485B000AF786039607B689B68F6
:104C9800FB60FB6823F07003FB603A68FB68134312
:104CA80043F00703FB607B68FA689A6000BF14371B
:104CB800BD465DF8047B704780B487B000AFF860EC
:104CC800B9607A603B60FB689B687B617B6923F411
:104CD8007F437B613B681A027B681A43BB681343B6
:104CE8007A6913437B61FB687A699A6000BF1C3755
:104CF800BD465DF8047B704780B485B000AF78602E
:104D080039607B6893F83C30012B01D102236DE0B8
:104D18007B68012283F83C207B68022283F83D20CF
:104D28007B681B685B68FB607B681B689B68BB6073
:104D38007B681B68304A934204D07B681B682F4A03
:104D4800934208D1FB6823F47003FB603B685B68FF
:104D5800FA681343FB60FB6823F07003FB603B6851
:104D68001B68FA681343FB607B681B68FA685A6023
:104D78007B681B68204A934222D07B681B68B3F18A
:104D8800804F1DD07B681B681D4A934218D07B68F2
:104D98001B681C4A934213D07B681B681A4A9342CB
:104DA8000ED07B681B68154A934209D07B681B6844
:104DB800164A934204D07B681B68154A93420CD16B
:104DC800BB6823F08003BB603B689B68BA681343E9
:104DD800BB607B681B68BA689A607B68012283F8AD
:104DE8003D207B68002283F83C20002318461437B6
:104DF800BD465DF8047B7047000001400004014097
:104E08000004004000080040000C00400040014041
:104E18000018004080B582B000AF78607B68002B36
:104E280001D1012340E07B68DB6F002B06D17B6852
:104E3800002283F878207868FCF7D4F97B6824226C
:104E4800DA677B681B681A687B681B6822F00102B6
:104E58001A60786800F02CF80346012B01D1012371
:104E680022E07B685B6A002B02D0786800F084FA45
:104E78007B681B685A687B681B6822F490425A60FA
:104E88007B681B689A687B681B6822F02A029A6014
:104E98007B681B681A687B681B6842F001021A600D
:104EA800786800F00BFB034618460837BD4680BDFE
:104EB80080B588B000AF78600023BB777B689A68BC
:104EC8007B681B691A437B685B691A437B68DB69EB
:104ED80013437B617B681B681A68A64B13407A688A
:104EE800126879690B4313607B681B685B6823F45D
:104EF80040517B68DA687B681B680A435A607B68A4
:104F08009B697B617B681B6A7A6913437B617B6859
:104F18001B689B6823F430617B681B687A690A43C5
:104F28009A607B681B68944A934220D1934BD3F8CC
:104F3800903003F00303032B16D801A252F823F094
:104F4800594F0008654F00085F4F00086B4F000875
:104F58000123FB7750E10223FB774DE10423FB7724
:104F68004AE10823FB7747E11023FB7744E17B689C
:104F78001B68834A934232D1804BD3F8903003F0B8
:104F88000C030C2B28D801A252F823F0C94F0008B3
:104F9800E14F0008E14F0008E14F0008D54F000835
:104FA800E14F0008E14F0008E14F0008CF4F00082B
:104FB800E14F0008E14F0008E14F0008DB4F00080F
:104FC8000023FB7718E10223FB7715E10423FB7725
:104FD80012E10823FB770FE11023FB770CE17B68D4
:104FE8001B68684A934220D1644BD3F8903003F091
:104FF8003003302B13D0302B14D8202B09D0202B82
:1050080010D8002B02D0102B06D00BE00023FB7722
:10501800F2E00223FB77EFE00423FB77ECE00823C0
:10502800FB77E9E01023FB77E6E07B681B68564ACC
:10503800934220D1514BD3F8903003F0C003C02BDA
:1050480013D0C02B14D8802B09D0802B10D8002B5C
:1050580002D0402B06D00BE00023FB77CCE00223E4
:10506800FB77C9E00423FB77C6E00823FB77C3E09E
:105078001023FB77C0E07B681B68444A934225D124
:105088003E4BD3F8903003F44073B3F5407F17D00C
:10509800B3F5407F17D8B3F5007F0BD0B3F5007F89
:1050A80011D8002B03D0B3F5807F06D00BE0002386
:1050B800FB77A1E00223FB779EE00423FB779BE0CC
:1050C8000823FB7798E01023FB7795E07B681B6843
:1050D8002F4A934225D1294BD3F8903003F44063EB
:1050E800B3F5406F17D0B3F5406F17D8B3F5006F1D
:1050F8000BD0B3F5006F11D8002B03D0B3F5806F38
:1051080006D00BE00123FB7776E00223FB7773E000
:105118000423FB7770E00823FB776DE01023FB770F
:105128006AE07B681B681B4A934238D1134BD3F85B
:10513800903003F44053B3F5405F17D0B3F5405FA8
:105148002AD8B3F5005F0BD0B3F5005F24D8002B45
:1051580003D0B3F5805F06D01EE00023FB774BE059
:105168000223FB7748E00423FB7745E00823FB771D
:1051780042E000BFF369FFEF001001400038024031
:105188000044004000480040004C004000500040EF
:1051980000140140007800401023FB772CE07B6866
:1051A8001B68724A934225D1714BD3F8903003F4AF
:1051B8004043B3F5404F17D0B3F5404F17D8B3F578
:1051C800004F0BD0B3F5004F11D8002B03D0B3F527
:1051D800804F06D00BE00023FB770DE00223FB771E
:1051E8000AE00423FB7707E00823FB7704E0102399
:1051F800FB7701E01023FB777B68DB69B3F5004F91
:105208005BD1FB7F082B28D801A252F823F000BFFE
:105218003D520008455200084D52000863520008EC
:105228005352000863520008635200086352000892
:105238005B520008FEF7E2FAB86113E0FEF7F2FAF3
:10524800B8610FE04B4BBB610CE0FEF7C5F9B861E4
:1052580008E04FF40043BB6104E00023BB61012375
:10526800BB7700BFBB69002B74D0BB695A007B6851
:105278005B685B081A447B685B68B2FBF3F33B61CD
:105288003B690F2B16D93B69B3F5803F12D23B69B6
:105298009BB223F00F03FB813B695B089BB203F0D1
:1052A80007039AB2FB891343FB817B681B68FA8961
:1052B800DA604FE00123BB774CE0FB7F082B28D84E
:1052C80001A252F823F000BFF5520008FD52000871
:1052D800055300081B5300080B5300081B53000814
:1052E8001B5300081B53000813530008FEF786FAE7
:1052F800B86113E0FEF796FAB8610FE01D4BBB6189
:105308000CE0FEF769F9B86108E04FF40043BB61AF
:1053180004E00023BB610123BB7700BFBB69002BFE
:1053280018D07B685B685A08BB691A447B685B685D
:10533800B2FBF3F33B613B690F2B09D93B69B3F52A
:10534800803F05D23B699AB27B681B68DA6001E04E
:105358000123BB777B6800229A667B680022DA66A5
:10536800BB7F18462037BD4680BD00BF007C00408B
:10537800003802400024F40080B483B000AF7860A5
:105388007B685B6A03F00103002B0AD07B681B680B
:105398005B6823F400317B689A6A7B681B680A4360
:1053A8005A607B685B6A03F00203002B0AD07B68B3
:1053B8001B685B6823F480317B68DA6A7B681B684A
:1053C8000A435A607B685B6A03F00403002B0AD027
:1053D8007B681B685B6823F480217B681A6B7B6899
:1053E8001B680A435A607B685B6A03F00803002B5A
:1053F8000AD07B681B685B6823F400417B685A6BA2
:105408007B681B680A435A607B685B6A03F0100379
:10541800002B0AD07B681B689B6823F480517B684B
:105428009A6B7B681B680A439A607B685B6A03F027
:105438002003002B0AD07B681B689B6823F400516B
:105448007B68DA6B7B681B680A439A607B685B6AD7
:1054580003F04003002B1AD07B681B685B6823F4B9
:1054680080117B681A6C7B681B680A435A607B68EA
:105478001B6CB3F5801F0AD17B681B685B6823F43B
:10548800C0017B685A6C7B681B680A435A607B685A
:105498005B6A03F08003002B0AD07B681B685B689B
:1054A80023F400217B689A6C7B681B680A435A6066
:1054B80000BF0C37BD465DF8047B704780B586B0E9
:1054C80002AF78607B680022C3F88420FCF742F8BA
:1054D800F8607B681B681B6803F00803082B0ED173
:1054E8006FF07E430093FB6800224FF40011786848
:1054F80000F031F80346002B01D0032327E07B6836
:105508001B681B6803F00403042B0ED16FF07E4365
:105518000093FB6800224FF48001786800F01BF8C4
:105528000346002B01D0032311E07B682022DA67B1
:105538007B682022C3F880207B6800221A667B687B
:1055480000225A667B68002283F8782000231846D8
:105558001037BD4680BD80B59CB000AFF860B9601B
:105568003B601346FB71A7E0BB6FB3F1FF3F00F050
:10557800A380FBF7EFFF02463B68D31ABA6F9A4243
:1055880002D3BB6F002B3FD1FB681B683B653B6DAB
:1055980053E8003FFB64FB6C23F4D0737B66FB6825
:1055A8001B681A467B6EFB65BA65B96DFA6D41E8F2
:1055B80000237B657B6D002BE6D1FB681B680833F5
:1055C800FB63FB6B53E8003FBB63BB6B23F001033A
:1055D8003B66FB681B6808333A6EBA647B64796C77
:1055E800BA6C41E800233B643B6C002BE5D1FB68B7
:1055F8002022DA67FB682022C3F88020FB6800229B
:1056080083F87820032368E0FB681B681B6803F0B5
:105618000403002B50D0FB681B68DB6903F40063AC
:10562800B3F5006F48D1FB681B684FF400621A623B
:10563800FB681B68BB62BB6A53E8003F7B627B6AFE
:1056480023F4D073FB66FB681B681A46FB6E7B630A
:105658003A63396B7A6B41E80023FB62FB6A002BE3
:10566800E6D1FB681B6808337B617B6953E8003F20
:105678003B613B6923F00103BB66FB681B68083389
:10568800BA6E3A62FB61F9693A6A41E80023BB6184
:10569800BB69002BE5D1FB682022DA67FB68202272
:1056A800C3F88020FB682022C3F88420FB6800220E
:1056B80083F87820032310E0FB681B68DA69BB686D
:1056C8001340BA689A420CBF01230023DBB21A4682
:1056D800FB799A423FF448AF002318467037BD461D
:1056E80080BD84B080B584B000AF786007F11C003D
:1056F80080E80E003B6B012B22D17B689B6B23F467
:1057080080327B689A637B68DB6823F4840323F028
:1057180040037A68D3607B68DB6823F440127B68B7
:10572800DA60FB6C012B05D17B68DB6843F48012DF
:105738007B68DA60786800F093FA0346FB7310E040
:105748007B68DB6843F040027B68DA60786800F0C9
:1057580087FA0346FB737B689B6B43F480327B6854
:105768009A63BB6A012B0BD17B689B6843F00602E6
:105778007B689A607B689B6843F020027B689A602C
:10578800FB7B18461037BD46BDE8804004B0704723
:1057980080B483B000AF78607B689B6823F0010217
:1057A8007B689A60002318460C37BD465DF8047B79
:1057B800704780B584B000AF78600B46FB7000235B
:1057C800FB607B68DB6823F0C0427B68DA60FB78AB
:1057D800012B15D17B68DB6843F000527B68DA60E7
:1057E8000120FBF7C3FEFB680133FB60786800F01B
:1057F80029FA0346012B1ED0FB68312BF0D91AE099
:10580800FB78002B15D17B68DB6843F080427B680E
:10581800DA600120FBF7AAFEFB680133FB607868B9
:1058280000F010FA0346002B05D0FB68312BF0D9A5
:1058380001E0012305E0FB68322B01D1012300E0E0
:10584800002318461037BD4680BD000084B080B5DF
:1058580086B000AF786007F1240080E80E000023CE
:10586800FB757B68FB6000233B6109E07A683B6954
:1058780040339B00134400225A603B6901333B616B
:105888003B690E2BF2D9FB6C002B1CD1FB6803F58E
:1058980000635B68FA6802F5006243F00203536034
:1058A8007B689B6B23F400127B689A637B681B6898
:1058B80043F040027B681A607B681B6843F08002F3
:1058C8007B681A6005E07B689B6B43F400127B6879
:1058D8009A63FB6803F560631A4600231360FB684C
:1058E80003F500631946FB6803F500631A460B6865
:1058F8001360BB6B012B0CD1FB6A002B04D1002178
:10590800786800F065F908E00121786800F060F92E
:1059180003E00321786800F05BF91021786800F053
:10592800F3F80346002B01D00123FB75786800F0DB
:105938001FF90346002B01D00123FB75FB6803F513
:1059480000631A4600231361FB6803F500631A46D7
:1059580000235361FB6803F500631A460023D361F3
:1059680000233B6143E03B695A01FB68134403F59C
:1059780010631B6803F00043B3F1004F18D13B6973
:10598800002B0AD13B695A01FB68134403F51063E5
:105998001A464FF00063136013E03B695A01FB6835
:1059A800134403F510631A464FF09043136008E060
:1059B8003B695A01FB68134403F510631A46002338
:1059C80013603B695A01FB68134403F510631A46D8
:1059D800002313613B695A01FB68134403F5106304
:1059E8001A464FF67F3393603B6901333B617B6A0C
:1059F8003A699A42B7D300233B6143E03B695A01B5
:105A0800FB68134403F530631B6803F00043B3F1EC
:105A1800004F18D13B69002B0AD13B695A01FB683A
:105A2800134403F530631A464FF00063136013E024
:105A38003B695A01FB68134403F530631A464FF07B
:105A48009043136008E03B695A01FB68134403F56F
:105A580030631A46002313603B695A01FB681344FC
:105A680003F530631A46002313613B695A01FB684A
:105A7800134403F530631A464FF67F3393603B694E
:105A880001333B617B6A3A699A42B7D3FB6803F5F5
:105A980000631B69FA6802F5006223F480731361DE
:105AA8007B6800229A617B686FF080425A613B6B89
:105AB800002B05D17B689B6943F010027B689A61D3
:105AC8007B689A690F4B13437A689361FB6B002BD1
